{"contracts/WarrantyRegistry.sol":{"WarrantyRegistry":{"abi":[{"anonymous":false,"inputs":[{"indexed":false,"internalType":"string","name":"warrantyRootId","type":"string"},{"indexed":false,"internalType":"uint256","name":"versionNo","type":"uint256"},{"indexed":false,"internalType":"string","name":"eventType","type":"string"},{"indexed":false,"internalType":"string","name":"startDate","type":"string"},{"indexed":false,"internalType":"string","name":"endDate","type":"string"},{"indexed":false,"internalType":"bytes32","name":"payloadHash","type":"bytes32"},{"indexed":false,"internalType":"bytes32","name":"previousVersionHash","type":"bytes32"},{"indexed":false,"internalType":"uint256","name":"anchoredAt","type":"uint256"}],"name":"WarrantyVersionAppended","type":"event"},{"inputs":[{"internalType":"string","name":"warrantyRootId","type":"string"},{"internalType":"uint256","name":"versionNo","type":"uint256"},{"internalType":"string","name":"eventType","type":"string"},{"internalType":"string","name":"startDate","type":"string"},{"internalType":"string","name":"endDate","type":"string"},{"internalType":"bytes32","name":"payloadHash","type":"bytes32"},{"internalType":"bytes32","name":"previousVersionHash","type":"bytes32"}],"name":"appendWarrantyVersion","outputs":[{"internalType":"bytes32","name":"key","type":"bytes32"}],"stateMutability":"nonpayable","type":"function"},{"inputs":[{"internalType":"string","name":"warrantyRootId","type":"string"},{"internalType":"uint256","name":"versionNo","type":"uint256"}],"name":"getVersionMeta","outputs":[{"internalType":"string","name":"rootId","type":"string"},{"internalType":"uint256","name":"ver","type":"uint256"},{"internalType":"string","name":"evt","type":"string"},{"internalType":"string","name":"start","type":"string"},{"internalType":"string","name":"end","type":"string"},{"internalType":"bytes32","name":"hash","type":"bytes32"},{"internalType":"bytes32","name":"prevHash","type":"bytes32"},{"internalType":"uint256","name":"anchoredAt","type":"uint256"},{"internalType":"bool","name":"exists","type":"bool"}],"stateMutability":"view","type":"function"}],"evm":{"bytecode":{"linkReferences":{},"object":"608060405234801561001057600080fd5b50610afb806100206000396000f3fe608060405234801561001057600080fd5b50600436106100365760003560e01c806332fbbc311461003b578063807b93981461006c575b600080fd5b61004e6100493660046106f5565b61008d565b6040516100639998979695949392919061078a565b60405180910390f35b61007f61007a36600461080c565b6103a6565b604051908152602001610063565b60606000606080606060008060008060006100a88c8c61061f565b90506000806000838152602001908152602001600020604051806101200160405290816000820180546100da906108d6565b80601f0160208091040260200160405190810160405280929190818152602001828054610106906108d6565b80156101535780601f1061012857610100808354040283529160200191610153565b820191906000526020600020905b81548152906001019060200180831161013657829003601f168201915b5050505050815260200160018201548152602001600282018054610176906108d6565b80601f01602080910402602001604051908101604052809291908181526020018280546101a2906108d6565b80156101ef5780601f106101c4576101008083540402835291602001916101ef565b820191906000526020600020905b8154815290600101906020018083116101d257829003601f168201915b50505050508152602001600382018054610208906108d6565b80601f0160208091040260200160405190810160405280929190818152602001828054610234906108d6565b80156102815780601f1061025657610100808354040283529160200191610281565b820191906000526020600020905b81548152906001019060200180831161026457829003601f168201915b5050505050815260200160048201805461029a906108d6565b80601f01602080910402602001604051908101604052809291908181526020018280546102c6906108d6565b80156103135780601f106102e857610100808354040283529160200191610313565b820191906000526020600020905b8154815290600101906020018083116102f657829003601f168201915b505050505081526020016005820154815260200160068201548152602001600782015481526020016008820160009054906101000a900460ff1615151515815250509050806000015181602001518260400151836060015184608001518560a001518660c001518760e001518861010001519a509a509a509a509a509a509a509a509a5050509295985092959850929598565b6000808851116103ef5760405162461bcd60e51b815260206004820152600f60248201526e1c9bdbdd1259081c995c5d5a5c9959608a1b60448201526064015b60405180910390fd5b600087116104375760405162461bcd60e51b8152602060048201526015602482015274076657273696f6e4e6f206d757374206265203e203605c1b60448201526064016103e6565b8261047b5760405162461bcd60e51b81526020600482015260146024820152731c185e5b1bd85912185cda081c995c5d5a5c995960621b60448201526064016103e6565b610485888861061f565b60008181526020819052604090206008015490915060ff16156104ea5760405162461bcd60e51b815260206004820152601860248201527f76657273696f6e20616c726561647920616e63686f726564000000000000000060448201526064016103e6565b604080516101208101825289815260208082018a9052818301899052606082018890526080820187905260a0820186905260c082018590524260e08301526001610100830152600084815290819052919091208151819061054b9082610961565b50602082015160018201556040820151600282019061056a9082610961565b506060820151600382019061057f9082610961565b50608082015160048201906105949082610961565b5060a0820151600582015560c0820151600682015560e08201516007820155610100909101516008909101805460ff19169115159190911790556040517fcb809d2223dbf38565625bbcd0478231a06da53fcc2f03c80884c54420cc885c9061060c908a908a908a908a908a908a908a904290610a21565b60405180910390a1979650505050505050565b60008282604051602001610634929190610a98565b60405160208183030381529060405280519060200120905092915050565b634e487b7160e01b600052604160045260246000fd5b600082601f83011261067957600080fd5b813567ffffffffffffffff8082111561069457610694610652565b604051601f8301601f19908116603f011681019082821181831017156106bc576106bc610652565b816040528381528660208588010111156106d557600080fd5b836020870160208301376000602085830101528094505050505092915050565b6000806040838503121561070857600080fd5b823567ffffffffffffffff81111561071f57600080fd5b61072b85828601610668565b95602094909401359450505050565b60005b8381101561075557818101518382015260200161073d565b50506000910152565b6000815180845261077681602086016020860161073a565b601f01601f19169290920160200192915050565b600061012080835261079e8184018d61075e565b90508a602084015282810360408401526107b8818b61075e565b905082810360608401526107cc818a61075e565b905082810360808401526107e0818961075e565b9150508560a08301528460c08301528360e08301528215156101008301529a9950505050505050505050565b600080600080600080600060e0888a03121561082757600080fd5b873567ffffffffffffffff8082111561083f57600080fd5b61084b8b838c01610668565b985060208a0135975060408a013591508082111561086857600080fd5b6108748b838c01610668565b965060608a013591508082111561088a57600080fd5b6108968b838c01610668565b955060808a01359150808211156108ac57600080fd5b506108b98a828b01610668565b93505060a0880135915060c0880135905092959891949750929550565b600181811c908216806108ea57607f821691505b60208210810361090a57634e487b7160e01b600052602260045260246000fd5b50919050565b601f82111561095c576000816000526020600020601f850160051c810160208610156109395750805b601f850160051c820191505b8181101561095857828155600101610945565b5050505b505050565b815167ffffffffffffffff81111561097b5761097b610652565b61098f8161098984546108d6565b84610910565b602080601f8311600181146109c457600084156109ac5750858301515b600019600386901b1c1916600185901b178555610958565b600085815260208120601f198616915b828110156109f3578886015182559484019460019091019084016109d4565b5085821015610a115787850151600019600388901b60f8161c191681555b5050505050600190811b01905550565b6000610100808352610a358184018c61075e565b90508960208401528281036040840152610a4f818a61075e565b90508281036060840152610a63818961075e565b90508281036080840152610a77818861075e565b60a0840196909652505060c081019290925260e09091015295945050505050565b60008351610aaa81846020880161073a565b601d60f91b920191825250600181019190915260210191905056fea264697066735822122058449961018ef9bce4dd5924833cd6e0b6bcbc09f474fb0c2626904c54a5c76f64736f6c63430008180033","opcodes":"PUSH1 0x80 PUSH1 0x40 MSTORE CALLVALUE DUP1 ISZERO PUSH2 0x10 JUMPI PUSH1 0x0 DUP1 REVERT JUMPDEST POP PUSH2 0xAFB DUP1 PUSH2 0x20 PUSH1 0x0 CODECOPY PUSH1 0x0 RETURN INVALID PUSH1 0x80 PUSH1 0x40 MSTORE CALLVALUE DUP1 ISZERO PUSH2 0x10 JUMPI PUSH1 0x0 DUP1 REVERT JUMPDEST POP PUSH1 0x4 CALLDATASIZE LT PUSH2 0x36 JUMPI PUSH1 0x0 CALLDATALOAD PUSH1 0xE0 SHR DUP1 PUSH4 0x32FBBC31 EQ PUSH2 0x3B JUMPI DUP1 PUSH4 0x807B9398 EQ PUSH2 0x6C JUMPI JUMPDEST PUSH1 0x0 DUP1 REVERT JUMPDEST PUSH2 0x4E PUSH2 0x49 CALLDATASIZE PUSH1 0x4 PUSH2 0x6F5 JUMP JUMPDEST PUSH2 0x8D JUMP JUMPDEST PUSH1 0x40 MLOAD PUSH2 0x63 SWAP10 SWAP9 SWAP8 SWAP7 SWAP6 SWAP5 SWAP4 SWAP3 SWAP2 SWAP1 PUSH2 0x78A JUMP JUMPDEST PUSH1 0x40 MLOAD DUP1 SWAP2 SUB SWAP1 RETURN JUMPDEST PUSH2 0x7F PUSH2 0x7A CALLDATASIZE PUSH1 0x4 PUSH2 0x80C JUMP JUMPDEST PUSH2 0x3A6 JUMP JUMPDEST PUSH1 0x40 MLOAD SWAP1 DUP2 MSTORE PUSH1 0x20 ADD PUSH2 0x63 JUMP JUMPDEST PUSH1 0x60 PUSH1 0x0 PUSH1 0x60 DUP1 PUSH1 0x60 PUSH1 0x0 DUP1 PUSH1 0x0 DUP1 PUSH1 0x0 PUSH2 0xA8 DUP13 DUP13 PUSH2 0x61F JUMP JUMPDEST SWAP1 POP PUSH1 0x0 DUP1 PUSH1 0x0 DUP4 DUP2 MSTORE PUSH1 0x20 ADD SWAP1 DUP2 MSTORE PUSH1 0x20 ADD PUSH1 0x0 KECCAK256 PUSH1 0x40 MLOAD DUP1 PUSH2 0x120 ADD PUSH1 0x40 MSTORE SWAP1 DUP2 PUSH1 0x0 DUP3 ADD DUP1 SLOAD PUSH2 0xDA SWAP1 PUSH2 0x8D6 JUMP JUMPDEST DUP1 PUSH1 0x1F ADD PUSH1 0x20 DUP1 SWAP2 DIV MUL PUSH1 0x20 ADD PUSH1 0x40 MLOAD SWAP1 DUP2 ADD PUSH1 0x40 MSTORE DUP1 SWAP3 SWAP2 SWAP1 DUP2 DUP2 MSTORE PUSH1 0x20 ADD DUP3 DUP1 SLOAD PUSH2 0x106 SWAP1 PUSH2 0x8D6 JUMP JUMPDEST DUP1 ISZERO PUSH2 0x153 JUMPI DUP1 PUSH1 0x1F LT PUSH2 0x128 JUMPI PUSH2 0x100 DUP1 DUP4 SLOAD DIV MUL DUP4 MSTORE SWAP2 PUSH1 0x20 ADD SWAP2 PUSH2 0x153 JUMP JUMPDEST DUP3 ADD SWAP2 SWAP1 PUSH1 0x0 MSTORE PUSH1 0x20 PUSH1 0x0 KECCAK256 SWAP1 JUMPDEST DUP2 SLOAD DUP2 MSTORE SWAP1 PUSH1 0x1 ADD SWAP1 PUSH1 0x20 ADD DUP1 DUP4 GT PUSH2 0x136 JUMPI DUP3 SWAP1 SUB PUSH1 0x1F AND DUP3 ADD SWAP2 JUMPDEST POP POP POP POP POP DUP2 MSTORE PUSH1 0x20 ADD PUSH1 0x1 DUP3 ADD SLOAD DUP2 MSTORE PUSH1 0x20 ADD PUSH1 0x2 DUP3 ADD DUP1 SLOAD PUSH2 0x176 SWAP1 PUSH2 0x8D6 JUMP JUMPDEST DUP1 PUSH1 0x1F ADD PUSH1 0x20 DUP1 SWAP2 DIV MUL PUSH1 0x20 ADD PUSH1 0x40 MLOAD SWAP1 DUP2 ADD PUSH1 0x40 MSTORE DUP1 SWAP3 SWAP2 SWAP1 DUP2 DUP2 MSTORE PUSH1 0x20 ADD DUP3 DUP1 SLOAD PUSH2 0x1A2 SWAP1 PUSH2 0x8D6 JUMP JUMPDEST DUP1 ISZERO PUSH2 0x1EF JUMPI DUP1 PUSH1 0x1F LT PUSH2 0x1C4 JUMPI PUSH2 0x100 DUP1 DUP4 SLOAD DIV MUL DUP4 MSTORE SWAP2 PUSH1 0x20 ADD SWAP2 PUSH2 0x1EF JUMP JUMPDEST DUP3 ADD SWAP2 SWAP1 PUSH1 0x0 MSTORE PUSH1 0x20 PUSH1 0x0 KECCAK256 SWAP1 JUMPDEST DUP2 SLOAD DUP2 MSTORE SWAP1 PUSH1 0x1 ADD SWAP1 PUSH1 0x20 ADD DUP1 DUP4 GT PUSH2 0x1D2 JUMPI DUP3 SWAP1 SUB PUSH1 0x1F AND DUP3 ADD SWAP2 JUMPDEST POP POP POP POP POP DUP2 MSTORE PUSH1 0x20 ADD PUSH1 0x3 DUP3 ADD DUP1 SLOAD PUSH2 0x208 SWAP1 PUSH2 0x8D6 JUMP JUMPDEST DUP1 PUSH1 0x1F ADD PUSH1 0x20 DUP1 SWAP2 DIV MUL PUSH1 0x20 ADD PUSH1 0x40 MLOAD SWAP1 DUP2 ADD PUSH1 0x40 MSTORE DUP1 SWAP3 SWAP2 SWAP1 DUP2 DUP2 MSTORE PUSH1 0x20 ADD DUP3 DUP1 SLOAD PUSH2 0x234 SWAP1 PUSH2 0x8D6 JUMP JUMPDEST DUP1 ISZERO PUSH2 0x281 JUMPI DUP1 PUSH1 0x1F LT PUSH2 0x256 JUMPI PUSH2 0x100 DUP1 DUP4 SLOAD DIV MUL DUP4 MSTORE SWAP2 PUSH1 0x20 ADD SWAP2 PUSH2 0x281 JUMP JUMPDEST DUP3 ADD SWAP2 SWAP1 PUSH1 0x0 MSTORE PUSH1 0x20 PUSH1 0x0 KECCAK256 SWAP1 JUMPDEST DUP2 SLOAD DUP2 MSTORE SWAP1 PUSH1 0x1 ADD SWAP1 PUSH1 0x20 ADD DUP1 DUP4 GT PUSH2 0x264 JUMPI DUP3 SWAP1 SUB PUSH1 0x1F AND DUP3 ADD SWAP2 JUMPDEST POP POP POP POP POP DUP2 MSTORE PUSH1 0x20 ADD PUSH1 0x4 DUP3 ADD DUP1 SLOAD PUSH2 0x29A SWAP1 PUSH2 0x8D6 JUMP JUMPDEST DUP1 PUSH1 0x1F ADD PUSH1 0x20 DUP1 SWAP2 DIV MUL PUSH1 0x20 ADD PUSH1 0x40 MLOAD SWAP1 DUP2 ADD PUSH1 0x40 MSTORE DUP1 SWAP3 SWAP2 SWAP1 DUP2 DUP2 MSTORE PUSH1 0x20 ADD DUP3 DUP1 SLOAD PUSH2 0x2C6 SWAP1 PUSH2 0x8D6 JUMP JUMPDEST DUP1 ISZERO PUSH2 0x313 JUMPI DUP1 PUSH1 0x1F LT PUSH2 0x2E8 JUMPI PUSH2 0x100 DUP1 DUP4 SLOAD DIV MUL DUP4 MSTORE SWAP2 PUSH1 0x20 ADD SWAP2 PUSH2 0x313 JUMP JUMPDEST DUP3 ADD SWAP2 SWAP1 PUSH1 0x0 MSTORE PUSH1 0x20 PUSH1 0x0 KECCAK256 SWAP1 JUMPDEST DUP2 SLOAD DUP2 MSTORE SWAP1 PUSH1 0x1 ADD SWAP1 PUSH1 0x20 ADD DUP1 DUP4 GT PUSH2 0x2F6 JUMPI DUP3 SWAP1 SUB PUSH1 0x1F AND DUP3 ADD SWAP2 JUMPDEST POP POP POP POP POP DUP2 MSTORE PUSH1 0x20 ADD PUSH1 0x5 DUP3 ADD SLOAD DUP2 MSTORE PUSH1 0x20 ADD PUSH1 0x6 DUP3 ADD SLOAD DUP2 MSTORE PUSH1 0x20 ADD PUSH1 0x7 DUP3 ADD SLOAD DUP2 MSTORE PUSH1 0x20 ADD PUSH1 0x8 DUP3 ADD PUSH1 0x0 SWAP1 SLOAD SWAP1 PUSH2 0x100 EXP SWAP1 DIV PUSH1 0xFF AND ISZERO ISZERO ISZERO ISZERO DUP2 MSTORE POP POP SWAP1 POP DUP1 PUSH1 0x0 ADD MLOAD DUP2 PUSH1 0x20 ADD MLOAD DUP3 PUSH1 0x40 ADD MLOAD DUP4 PUSH1 0x60 ADD MLOAD DUP5 PUSH1 0x80 ADD MLOAD DUP6 PUSH1 0xA0 ADD MLOAD DUP7 PUSH1 0xC0 ADD MLOAD DUP8 PUSH1 0xE0 ADD MLOAD DUP9 PUSH2 0x100 ADD MLOAD SWAP11 POP SWAP11 POP SWAP11 POP SWAP11 POP SWAP11 POP SWAP11 POP SWAP11 POP SWAP11 POP SWAP11 POP POP POP SWAP3 SWAP6 SWAP9 POP SWAP3 SWAP6 SWAP9 POP SWAP3 SWAP6 SWAP9 JUMP JUMPDEST PUSH1 0x0 DUP1 DUP9 MLOAD GT PUSH2 0x3EF JUMPI PUSH1 0x40 MLOAD PUSH3 0x461BCD PUSH1 0xE5 SHL DUP2 MSTORE PUSH1 0x20 PUSH1 0x4 DUP3 ADD MSTORE PUSH1 0xF PUSH1 0x24 DUP3 ADD MSTORE PUSH15 0x1C9BDBDD1259081C995C5D5A5C9959 PUSH1 0x8A SHL PUSH1 0x44 DUP3 ADD MSTORE PUSH1 0x64 ADD JUMPDEST PUSH1 0x40 MLOAD DUP1 SWAP2 SUB SWAP1 REVERT JUMPDEST PUSH1 0x0 DUP8 GT PUSH2 0x437 JUMPI PUSH1 0x40 MLOAD PUSH3 0x461BCD PUSH1 0xE5 SHL DUP2 MSTORE PUSH1 0x20 PUSH1 0x4 DUP3 ADD MSTORE PUSH1 0x15 PUSH1 0x24 DUP3 ADD MSTORE PUSH21 0x76657273696F6E4E6F206D757374206265203E203 PUSH1 0x5C SHL PUSH1 0x44 DUP3 ADD MSTORE PUSH1 0x64 ADD PUSH2 0x3E6 JUMP JUMPDEST DUP3 PUSH2 0x47B JUMPI PUSH1 0x40 MLOAD PUSH3 0x461BCD PUSH1 0xE5 SHL DUP2 MSTORE PUSH1 0x20 PUSH1 0x4 DUP3 ADD MSTORE PUSH1 0x14 PUSH1 0x24 DUP3 ADD MSTORE PUSH20 0x1C185E5B1BD85912185CDA081C995C5D5A5C9959 PUSH1 0x62 SHL PUSH1 0x44 DUP3 ADD MSTORE PUSH1 0x64 ADD PUSH2 0x3E6 JUMP JUMPDEST PUSH2 0x485 DUP9 DUP9 PUSH2 0x61F JUMP JUMPDEST PUSH1 0x0 DUP2 DUP2 MSTORE PUSH1 0x20 DUP2 SWAP1 MSTORE PUSH1 0x40 SWAP1 KECCAK256 PUSH1 0x8 ADD SLOAD SWAP1 SWAP2 POP PUSH1 0xFF AND ISZERO PUSH2 0x4EA JUMPI PUSH1 0x40 MLOAD PUSH3 0x461BCD PUSH1 0xE5 SHL DUP2 MSTORE PUSH1 0x20 PUSH1 0x4 DUP3 ADD MSTORE PUSH1 0x18 PUSH1 0x24 DUP3 ADD MSTORE PUSH32 0x76657273696F6E20616C726561647920616E63686F7265640000000000000000 PUSH1 0x44 DUP3 ADD MSTORE PUSH1 0x64 ADD PUSH2 0x3E6 JUMP JUMPDEST PUSH1 0x40 DUP1 MLOAD PUSH2 0x120 DUP2 ADD DUP3 MSTORE DUP10 DUP2 MSTORE PUSH1 0x20 DUP1 DUP3 ADD DUP11 SWAP1 MSTORE DUP2 DUP4 ADD DUP10 SWAP1 MSTORE PUSH1 0x60 DUP3 ADD DUP9 SWAP1 MSTORE PUSH1 0x80 DUP3 ADD DUP8 SWAP1 MSTORE PUSH1 0xA0 DUP3 ADD DUP7 SWAP1 MSTORE PUSH1 0xC0 DUP3 ADD DUP6 SWAP1 MSTORE TIMESTAMP PUSH1 0xE0 DUP4 ADD MSTORE PUSH1 0x1 PUSH2 0x100 DUP4 ADD MSTORE PUSH1 0x0 DUP5 DUP2 MSTORE SWAP1 DUP2 SWAP1 MSTORE SWAP2 SWAP1 SWAP2 KECCAK256 DUP2 MLOAD DUP2 SWAP1 PUSH2 0x54B SWAP1 DUP3 PUSH2 0x961 JUMP JUMPDEST POP PUSH1 0x20 DUP3 ADD MLOAD PUSH1 0x1 DUP3 ADD SSTORE PUSH1 0x40 DUP3 ADD MLOAD PUSH1 0x2 DUP3 ADD SWAP1 PUSH2 0x56A SWAP1 DUP3 PUSH2 0x961 JUMP JUMPDEST POP PUSH1 0x60 DUP3 ADD MLOAD PUSH1 0x3 DUP3 ADD SWAP1 PUSH2 0x57F SWAP1 DUP3 PUSH2 0x961 JUMP JUMPDEST POP PUSH1 0x80 DUP3 ADD MLOAD PUSH1 0x4 DUP3 ADD SWAP1 PUSH2 0x594 SWAP1 DUP3 PUSH2 0x961 JUMP JUMPDEST POP PUSH1 0xA0 DUP3 ADD MLOAD PUSH1 0x5 DUP3 ADD SSTORE PUSH1 0xC0 DUP3 ADD MLOAD PUSH1 0x6 DUP3 ADD SSTORE PUSH1 0xE0 DUP3 ADD MLOAD PUSH1 0x7 DUP3 ADD SSTORE PUSH2 0x100 SWAP1 SWAP2 ADD MLOAD PUSH1 0x8 SWAP1 SWAP2 ADD DUP1 SLOAD PUSH1 0xFF NOT AND SWAP2 ISZERO ISZERO SWAP2 SWAP1 SWAP2 OR SWAP1 SSTORE PUSH1 0x40 MLOAD PUSH32 0xCB809D2223DBF38565625BBCD0478231A06DA53FCC2F03C80884C54420CC885C SWAP1 PUSH2 0x60C SWAP1 DUP11 SWAP1 DUP11 SWAP1 DUP11 SWAP1 DUP11 SWAP1 DUP11 SWAP1 DUP11 SWAP1 DUP11 SWAP1 TIMESTAMP SWAP1 PUSH2 0xA21 JUMP JUMPDEST PUSH1 0x40 MLOAD DUP1 SWAP2 SUB SWAP1 LOG1 SWAP8 SWAP7 POP POP POP POP POP POP POP JUMP JUMPDEST PUSH1 0x0 DUP3 DUP3 PUSH1 0x40 MLOAD PUSH1 0x20 ADD PUSH2 0x634 SWAP3 SWAP2 SWAP1 PUSH2 0xA98 JUMP JUMPDEST PUSH1 0x40 MLOAD PUSH1 0x20 DUP2 DUP4 SUB SUB DUP2 MSTORE SWAP1 PUSH1 0x40 MSTORE DUP1 MLOAD SWAP1 PUSH1 0x20 ADD KECCAK256 SWAP1 POP SWAP3 SWAP2 POP POP JUMP JUMPDEST PUSH4 0x4E487B71 PUSH1 0xE0 SHL PUSH1 0x0 MSTORE PUSH1 0x41 PUSH1 0x4 MSTORE PUSH1 0x24 PUSH1 0x0 REVERT JUMPDEST PUSH1 0x0 DUP3 PUSH1 0x1F DUP4 ADD SLT PUSH2 0x679 JUMPI PUSH1 0x0 DUP1 REVERT JUMPDEST DUP2 CALLDATALOAD PUSH8 0xFFFFFFFFFFFFFFFF DUP1 DUP3 GT ISZERO PUSH2 0x694 JUMPI PUSH2 0x694 PUSH2 0x652 JUMP JUMPDEST PUSH1 0x40 MLOAD PUSH1 0x1F DUP4 ADD PUSH1 0x1F NOT SWAP1 DUP2 AND PUSH1 0x3F ADD AND DUP2 ADD SWAP1 DUP3 DUP3 GT DUP2 DUP4 LT OR ISZERO PUSH2 0x6BC JUMPI PUSH2 0x6BC PUSH2 0x652 JUMP JUMPDEST DUP2 PUSH1 0x40 MSTORE DUP4 DUP2 MSTORE DUP7 PUSH1 0x20 DUP6 DUP9 ADD ADD GT ISZERO PUSH2 0x6D5 JUMPI PUSH1 0x0 DUP1 REVERT JUMPDEST DUP4 PUSH1 0x20 DUP8 ADD PUSH1 0x20 DUP4 ADD CALLDATACOPY PUSH1 0x0 PUSH1 0x20 DUP6 DUP4 ADD ADD MSTORE DUP1 SWAP5 POP POP POP POP POP SWAP3 SWAP2 POP POP JUMP JUMPDEST PUSH1 0x0 DUP1 PUSH1 0x40 DUP4 DUP6 SUB SLT ISZERO PUSH2 0x708 JUMPI PUSH1 0x0 DUP1 REVERT JUMPDEST DUP3 CALLDATALOAD PUSH8 0xFFFFFFFFFFFFFFFF DUP2 GT ISZERO PUSH2 0x71F JUMPI PUSH1 0x0 DUP1 REVERT JUMPDEST PUSH2 0x72B DUP6 DUP3 DUP7 ADD PUSH2 0x668 JUMP JUMPDEST SWAP6 PUSH1 0x20 SWAP5 SWAP1 SWAP5 ADD CALLDATALOAD SWAP5 POP POP POP POP JUMP JUMPDEST PUSH1 0x0 JUMPDEST DUP4 DUP2 LT ISZERO PUSH2 0x755 JUMPI DUP2 DUP2 ADD MLOAD DUP4 DUP3 ADD MSTORE PUSH1 0x20 ADD PUSH2 0x73D JUMP JUMPDEST POP POP PUSH1 0x0 SWAP2 ADD MSTORE JUMP JUMPDEST PUSH1 0x0 DUP2 MLOAD DUP1 DUP5 MSTORE PUSH2 0x776 DUP2 PUSH1 0x20 DUP7 ADD PUSH1 0x20 DUP7 ADD PUSH2 0x73A JUMP JUMPDEST PUSH1 0x1F ADD PUSH1 0x1F NOT AND SWAP3 SWAP1 SWAP3 ADD PUSH1 0x20 ADD SWAP3 SWAP2 POP POP JUMP JUMPDEST PUSH1 0x0 PUSH2 0x120 DUP1 DUP4 MSTORE PUSH2 0x79E DUP2 DUP5 ADD DUP14 PUSH2 0x75E JUMP JUMPDEST SWAP1 POP DUP11 PUSH1 0x20 DUP5 ADD MSTORE DUP3 DUP2 SUB PUSH1 0x40 DUP5 ADD MSTORE PUSH2 0x7B8 DUP2 DUP12 PUSH2 0x75E JUMP JUMPDEST SWAP1 POP DUP3 DUP2 SUB PUSH1 0x60 DUP5 ADD MSTORE PUSH2 0x7CC DUP2 DUP11 PUSH2 0x75E JUMP JUMPDEST SWAP1 POP DUP3 DUP2 SUB PUSH1 0x80 DUP5 ADD MSTORE PUSH2 0x7E0 DUP2 DUP10 PUSH2 0x75E JUMP JUMPDEST SWAP2 POP POP DUP6 PUSH1 0xA0 DUP4 ADD MSTORE DUP5 PUSH1 0xC0 DUP4 ADD MSTORE DUP4 PUSH1 0xE0 DUP4 ADD MSTORE DUP3 ISZERO ISZERO PUSH2 0x100 DUP4 ADD MSTORE SWAP11 SWAP10 POP POP POP POP POP POP POP POP POP POP JUMP JUMPDEST PUSH1 0x0 DUP1 PUSH1 0x0 DUP1 PUSH1 0x0 DUP1 PUSH1 0x0 PUSH1 0xE0 DUP9 DUP11 SUB SLT ISZERO PUSH2 0x827 JUMPI PUSH1 0x0 DUP1 REVERT JUMPDEST DUP8 CALLDATALOAD PUSH8 0xFFFFFFFFFFFFFFFF DUP1 DUP3 GT ISZERO PUSH2 0x83F JUMPI PUSH1 0x0 DUP1 REVERT JUMPDEST PUSH2 0x84B DUP12 DUP4 DUP13 ADD PUSH2 0x668 JUMP JUMPDEST SWAP9 POP PUSH1 0x20 DUP11 ADD CALLDATALOAD SWAP8 POP PUSH1 0x40 DUP11 ADD CALLDATALOAD SWAP2 POP DUP1 DUP3 GT ISZERO PUSH2 0x868 JUMPI PUSH1 0x0 DUP1 REVERT JUMPDEST PUSH2 0x874 DUP12 DUP4 DUP13 ADD PUSH2 0x668 JUMP JUMPDEST SWAP7 POP PUSH1 0x60 DUP11 ADD CALLDATALOAD SWAP2 POP DUP1 DUP3 GT ISZERO PUSH2 0x88A JUMPI PUSH1 0x0 DUP1 REVERT JUMPDEST PUSH2 0x896 DUP12 DUP4 DUP13 ADD PUSH2 0x668 JUMP JUMPDEST SWAP6 POP PUSH1 0x80 DUP11 ADD CALLDATALOAD SWAP2 POP DUP1 DUP3 GT ISZERO PUSH2 0x8AC JUMPI PUSH1 0x0 DUP1 REVERT JUMPDEST POP PUSH2 0x8B9 DUP11 DUP3 DUP12 ADD PUSH2 0x668 JUMP JUMPDEST SWAP4 POP POP PUSH1 0xA0 DUP9 ADD CALLDATALOAD SWAP2 POP PUSH1 0xC0 DUP9 ADD CALLDATALOAD SWAP1 POP SWAP3 SWAP6 SWAP9 SWAP2 SWAP5 SWAP8 POP SWAP3 SWAP6 POP JUMP JUMPDEST PUSH1 0x1 DUP2 DUP2 SHR SWAP1 DUP3 AND DUP1 PUSH2 0x8EA JUMPI PUSH1 0x7F DUP3 AND SWAP2 POP JUMPDEST PUSH1 0x20 DUP3 LT DUP2 SUB PUSH2 0x90A JUMPI PUSH4 0x4E487B71 PUSH1 0xE0 SHL PUSH1 0x0 MSTORE PUSH1 0x22 PUSH1 0x4 MSTORE PUSH1 0x24 PUSH1 0x0 REVERT JUMPDEST POP SWAP2 SWAP1 POP JUMP JUMPDEST PUSH1 0x1F DUP3 GT ISZERO PUSH2 0x95C JUMPI PUSH1 0x0 DUP2 PUSH1 0x0 MSTORE PUSH1 0x20 PUSH1 0x0 KECCAK256 PUSH1 0x1F DUP6 ADD PUSH1 0x5 SHR DUP2 ADD PUSH1 0x20 DUP7 LT ISZERO PUSH2 0x939 JUMPI POP DUP1 JUMPDEST PUSH1 0x1F DUP6 ADD PUSH1 0x5 SHR DUP3 ADD SWAP2 POP JUMPDEST DUP2 DUP2 LT ISZERO PUSH2 0x958 JUMPI DUP3 DUP2 SSTORE PUSH1 0x1 ADD PUSH2 0x945 JUMP JUMPDEST POP POP POP JUMPDEST POP POP POP JUMP JUMPDEST DUP2 MLOAD PUSH8 0xFFFFFFFFFFFFFFFF DUP2 GT ISZERO PUSH2 0x97B JUMPI PUSH2 0x97B PUSH2 0x652 JUMP JUMPDEST PUSH2 0x98F DUP2 PUSH2 0x989 DUP5 SLOAD PUSH2 0x8D6 JUMP JUMPDEST DUP5 PUSH2 0x910 JUMP JUMPDEST PUSH1 0x20 DUP1 PUSH1 0x1F DUP4 GT PUSH1 0x1 DUP2 EQ PUSH2 0x9C4 JUMPI PUSH1 0x0 DUP5 ISZERO PUSH2 0x9AC JUMPI POP DUP6 DUP4 ADD MLOAD JUMPDEST PUSH1 0x0 NOT PUSH1 0x3 DUP7 SWAP1 SHL SHR NOT AND PUSH1 0x1 DUP6 SWAP1 SHL OR DUP6 SSTORE PUSH2 0x958 JUMP JUMPDEST PUSH1 0x0 DUP6 DUP2 MSTORE PUSH1 0x20 DUP2 KECCAK256 PUSH1 0x1F NOT DUP7 AND SWAP2 JUMPDEST DUP3 DUP2 LT ISZERO PUSH2 0x9F3 JUMPI DUP9 DUP7 ADD MLOAD DUP3 SSTORE SWAP5 DUP5 ADD SWAP5 PUSH1 0x1 SWAP1 SWAP2 ADD SWAP1 DUP5 ADD PUSH2 0x9D4 JUMP JUMPDEST POP DUP6 DUP3 LT ISZERO PUSH2 0xA11 JUMPI DUP8 DUP6 ADD MLOAD PUSH1 0x0 NOT PUSH1 0x3 DUP9 SWAP1 SHL PUSH1 0xF8 AND SHR NOT AND DUP2 SSTORE JUMPDEST POP POP POP POP POP PUSH1 0x1 SWAP1 DUP2 SHL ADD SWAP1 SSTORE POP JUMP JUMPDEST PUSH1 0x0 PUSH2 0x100 DUP1 DUP4 MSTORE PUSH2 0xA35 DUP2 DUP5 ADD DUP13 PUSH2 0x75E JUMP JUMPDEST SWAP1 POP DUP10 PUSH1 0x20 DUP5 ADD MSTORE DUP3 DUP2 SUB PUSH1 0x40 DUP5 ADD MSTORE PUSH2 0xA4F DUP2 DUP11 PUSH2 0x75E JUMP JUMPDEST SWAP1 POP DUP3 DUP2 SUB PUSH1 0x60 DUP5 ADD MSTORE PUSH2 0xA63 DUP2 DUP10 PUSH2 0x75E JUMP JUMPDEST SWAP1 POP DUP3 DUP2 SUB PUSH1 0x80 DUP5 ADD MSTORE PUSH2 0xA77 DUP2 DUP9 PUSH2 0x75E JUMP JUMPDEST PUSH1 0xA0 DUP5 ADD SWAP7 SWAP1 SWAP7 MSTORE POP POP PUSH1 0xC0 DUP2 ADD SWAP3 SWAP1 SWAP3 MSTORE PUSH1 0xE0 SWAP1 SWAP2 ADD MSTORE SWAP6 SWAP5 POP POP POP POP POP JUMP JUMPDEST PUSH1 0x0 DUP4 MLOAD PUSH2 0xAAA DUP2 DUP5 PUSH1 0x20 DUP9 ADD PUSH2 0x73A JUMP JUMPDEST PUSH1 0x1D PUSH1 0xF9 SHL SWAP3 ADD SWAP2 DUP3 MSTORE POP PUSH1 0x1 DUP2 ADD SWAP2 SWAP1 SWAP2 MSTORE PUSH1 0x21 ADD SWAP2 SWAP1 POP JUMP INVALID LOG2 PUSH5 0x6970667358 0x22 SLT KECCAK256 PC PREVRANDAO SWAP10 PUSH2 0x18E 0xF9 0xBC 0xE4 0xDD MSIZE 0x24 DUP4 EXTCODECOPY 0xD6 0xE0 0xB6 0xBC 0xBC MULMOD DELEGATECALL PUSH21 0xFB0C2626904C54A5C76F64736F6C63430008180033 "},"methodIdentifiers":{"appendWarrantyVersion(string,uint256,string,string,string,bytes32,bytes32)":"807b9398","getVersionMeta(string,uint256)":"32fbbc31"}}}}}