{
  "_format": "hh-sol-artifact-1",
  "contractName": "WarrantyRegistry",
  "sourceName": "contracts/WarrantyRegistry.sol",
  "abi": [
    {
      "anonymous": false,
      "inputs": [
        {
          "indexed": false,
          "internalType": "string",
          "name": "warrantyRootId",
          "type": "string"
        },
        {
          "indexed": false,
          "internalType": "uint256",
          "name": "versionNo",
          "type": "uint256"
        },
        {
          "indexed": false,
          "internalType": "string",
          "name": "eventType",
          "type": "string"
        },
        {
          "indexed": false,
          "internalType": "string",
          "name": "startDate",
          "type": "string"
        },
        {
          "indexed": false,
          "internalType": "string",
          "name": "endDate",
          "type": "string"
        },
        {
          "indexed": false,
          "internalType": "bytes32",
          "name": "payloadHash",
          "type": "bytes32"
        },
        {
          "indexed": false,
          "internalType": "bytes32",
          "name": "previousVersionHash",
          "type": "bytes32"
        },
        {
          "indexed": false,
          "internalType": "uint256",
          "name": "anchoredAt",
          "type": "uint256"
        }
      ],
      "name": "WarrantyVersionAppended",
      "type": "event"
    },
    {
      "inputs": [
        {
          "internalType": "string",
          "name": "warrantyRootId",
          "type": "string"
        },
        {
          "internalType": "uint256",
          "name": "versionNo",
          "type": "uint256"
        },
        {
          "internalType": "string",
          "name": "eventType",
          "type": "string"
        },
        {
          "internalType": "string",
          "name": "startDate",
          "type": "string"
        },
        {
          "internalType": "string",
          "name": "endDate",
          "type": "string"
        },
        {
          "internalType": "bytes32",
          "name": "payloadHash",
          "type": "bytes32"
        },
        {
          "internalType": "bytes32",
          "name": "previousVersionHash",
          "type": "bytes32"
        }
      ],
      "name": "appendWarrantyVersion",
      "outputs": [
        {
          "internalType": "bytes32",
          "name": "key",
          "type": "bytes32"
        }
      ],
      "stateMutability": "nonpayable",
      "type": "function"
    },
    {
      "inputs": [
        {
          "internalType": "string",
          "name": "warrantyRootId",
          "type": "string"
        },
        {
          "internalType": "uint256",
          "name": "versionNo",
          "type": "uint256"
        }
      ],
      "name": "getVersionMeta",
      "outputs": [
        {
          "internalType": "string",
          "name": "rootId",
          "type": "string"
        },
        {
          "internalType": "uint256",
          "name": "ver",
          "type": "uint256"
        },
        {
          "internalType": "string",
          "name": "evt",
          "type": "string"
        },
        {
          "internalType": "string",
          "name": "start",
          "type": "string"
        },
        {
          "internalType": "string",
          "name": "end",
          "type": "string"
        },
        {
          "internalType": "bytes32",
          "name": "hash",
          "type": "bytes32"
        },
        {
          "internalType": "bytes32",
          "name": "prevHash",
          "type": "bytes32"
        },
        {
          "internalType": "uint256",
          "name": "anchoredAt",
          "type": "uint256"
        },
        {
          "internalType": "bool",
          "name": "exists",
          "type": "bool"
        }
      ],
      "stateMutability": "view",
      "type": "function"
    }
  ],
  "bytecode": "0x608060405234801561001057600080fd5b50610afb806100206000396000f3fe608060405234801561001057600080fd5b50600436106100365760003560e01c806332fbbc311461003b578063807b93981461006c575b600080fd5b61004e6100493660046106f5565b61008d565b6040516100639998979695949392919061078a565b60405180910390f35b61007f61007a36600461080c565b6103a6565b604051908152602001610063565b60606000606080606060008060008060006100a88c8c61061f565b90506000806000838152602001908152602001600020604051806101200160405290816000820180546100da906108d6565b80601f0160208091040260200160405190810160405280929190818152602001828054610106906108d6565b80156101535780601f1061012857610100808354040283529160200191610153565b820191906000526020600020905b81548152906001019060200180831161013657829003601f168201915b5050505050815260200160018201548152602001600282018054610176906108d6565b80601f01602080910402602001604051908101604052809291908181526020018280546101a2906108d6565b80156101ef5780601f106101c4576101008083540402835291602001916101ef565b820191906000526020600020905b8154815290600101906020018083116101d257829003601f168201915b50505050508152602001600382018054610208906108d6565b80601f0160208091040260200160405190810160405280929190818152602001828054610234906108d6565b80156102815780601f1061025657610100808354040283529160200191610281565b820191906000526020600020905b81548152906001019060200180831161026457829003601f168201915b5050505050815260200160048201805461029a906108d6565b80601f01602080910402602001604051908101604052809291908181526020018280546102c6906108d6565b80156103135780601f106102e857610100808354040283529160200191610313565b820191906000526020600020905b8154815290600101906020018083116102f657829003601f168201915b505050505081526020016005820154815260200160068201548152602001600782015481526020016008820160009054906101000a900460ff1615151515815250509050806000015181602001518260400151836060015184608001518560a001518660c001518760e001518861010001519a509a509a509a509a509a509a509a509a5050509295985092959850929598565b6000808851116103ef5760405162461bcd60e51b815260206004820152600f60248201526e1c9bdbdd1259081c995c5d5a5c9959608a1b60448201526064015b60405180910390fd5b600087116104375760405162461bcd60e51b8152602060048201526015602482015274076657273696f6e4e6f206d757374206265203e203605c1b60448201526064016103e6565b8261047b5760405162461bcd60e51b81526020600482015260146024820152731c185e5b1bd85912185cda081c995c5d5a5c995960621b60448201526064016103e6565b610485888861061f565b60008181526020819052604090206008015490915060ff16156104ea5760405162461bcd60e51b815260206004820152601860248201527f76657273696f6e20616c726561647920616e63686f726564000000000000000060448201526064016103e6565b604080516101208101825289815260208082018a9052818301899052606082018890526080820187905260a0820186905260c082018590524260e08301526001610100830152600084815290819052919091208151819061054b9082610961565b50602082015160018201556040820151600282019061056a9082610961565b506060820151600382019061057f9082610961565b50608082015160048201906105949082610961565b5060a0820151600582015560c0820151600682015560e08201516007820155610100909101516008909101805460ff19169115159190911790556040517fcb809d2223dbf38565625bbcd0478231a06da53fcc2f03c80884c54420cc885c9061060c908a908a908a908a908a908a908a904290610a21565b60405180910390a1979650505050505050565b60008282604051602001610634929190610a98565b60405160208183030381529060405280519060200120905092915050565b634e487b7160e01b600052604160045260246000fd5b600082601f83011261067957600080fd5b813567ffffffffffffffff8082111561069457610694610652565b604051601f8301601f19908116603f011681019082821181831017156106bc576106bc610652565b816040528381528660208588010111156106d557600080fd5b836020870160208301376000602085830101528094505050505092915050565b6000806040838503121561070857600080fd5b823567ffffffffffffffff81111561071f57600080fd5b61072b85828601610668565b95602094909401359450505050565b60005b8381101561075557818101518382015260200161073d565b50506000910152565b6000815180845261077681602086016020860161073a565b601f01601f19169290920160200192915050565b600061012080835261079e8184018d61075e565b90508a602084015282810360408401526107b8818b61075e565b905082810360608401526107cc818a61075e565b905082810360808401526107e0818961075e565b9150508560a08301528460c08301528360e08301528215156101008301529a9950505050505050505050565b600080600080600080600060e0888a03121561082757600080fd5b873567ffffffffffffffff8082111561083f57600080fd5b61084b8b838c01610668565b985060208a0135975060408a013591508082111561086857600080fd5b6108748b838c01610668565b965060608a013591508082111561088a57600080fd5b6108968b838c01610668565b955060808a01359150808211156108ac57600080fd5b506108b98a828b01610668565b93505060a0880135915060c0880135905092959891949750929550565b600181811c908216806108ea57607f821691505b60208210810361090a57634e487b7160e01b600052602260045260246000fd5b50919050565b601f82111561095c576000816000526020600020601f850160051c810160208610156109395750805b601f850160051c820191505b8181101561095857828155600101610945565b5050505b505050565b815167ffffffffffffffff81111561097b5761097b610652565b61098f8161098984546108d6565b84610910565b602080601f8311600181146109c457600084156109ac5750858301515b600019600386901b1c1916600185901b178555610958565b600085815260208120601f198616915b828110156109f3578886015182559484019460019091019084016109d4565b5085821015610a115787850151600019600388901b60f8161c191681555b5050505050600190811b01905550565b6000610100808352610a358184018c61075e565b90508960208401528281036040840152610a4f818a61075e565b90508281036060840152610a63818961075e565b90508281036080840152610a77818861075e565b60a0840196909652505060c081019290925260e09091015295945050505050565b60008351610aaa81846020880161073a565b601d60f91b920191825250600181019190915260210191905056fea264697066735822122058449961018ef9bce4dd5924833cd6e0b6bcbc09f474fb0c2626904c54a5c76f64736f6c63430008180033",
  "linkReferences": {},
  "deployedLinkReferences": {}
}